:020000040001F9
:20E0000088E087B921983F98209A80E88AB9439881E085B9299A479A5F98112484B714BE0C
:20E0200081FFF3D085E08093810082E08093C00088E18093C10086E08093C2008CE0809378
:20E04000C4008EE0CCD086E024E23DEF91E0309385002093840096BBB09BFECF4F9AA895DB
:20E060008150A9F7CC24DD2499249394A1E1AA2EF3E0BF2EA8D0813461F4A5D0082FB5D08D
:20E08000023811F0013811F484E001C083E093D08FC0823411F484E103C0853419F485E0BF
:20E0A000ACD086C08535A1F48ED0082F10E08BD0E82EFF24FE2CEE24E02AF12A8F2D881F72
:20E0C0008827881F8BBFEE0CFF1C8FD0670170C0863521F484E091D080E0D9CF843609F044
:20E0E00041C071D070D0082F6ED080E0C81680EED80618F4F601B7BEE895C0E0D1E063D026
:20E1000089930C17E1F7F0E0CF16F0EEDF0618F0F601B7BEE89569D007B600FCFDCFA6011A
:20E12000A0E0B1E02C9130E011968C91119790E0982F8827822B932B1296FA010C0197BE3F
:20E14000E89511244E5F5F4FF2E0A030BF0751F785E0F60187BFE89507B600FCFDCFA7BEF9
:20E16000E89526C08437B1F42ED02DD0F82E2BD03CD0F601EF2C8F010F5F1F4F84911BD036
:20E18000EA94F801C1F70894C11CD11CFA94CF0CD11C0EC0853739F428D08EE10CD087E92A
:20E1A0000AD085E074CF813511F488E018D01DD080E101D05FCF982F8091C00085FFFCCF9E
:20E1C0009093C60008958091C00087FFFCCF8091C00084FD01C0A8958091C6000895E0E60D
:20E1E000F0E098E1908380830895EDDF803219F088E0F5DFFFCF84E1DECF1F93182FE3DFC5
:12E200001150E9F7F2DF1F91089580E0E8DF3B98439AD6
:20E300000C94C6F10C94EFF10C94EFF10C94EFF10C94EFF10C94EFF10C94EFF10C94EFF126
:20E320000C94EFF10C94EFF10C94EFF10C94EFF10C94EFF10C94EFF10C94EFF10C94EFF1DD
:20E340000C94EFF10C94EFF10C94EFF10C94EFF10C94EFF10C94EFF10C94EFF10C94EFF1BD
:20E360000C94EFF10C94EFF10C94EFF10C94EFF10C94EFF10C94EFF10C94EFF10C94EFF19D
:20E380000C94EFF10C94EFF10C94EFF111241FBECFEFD0E4DEBFCDBF87EF84BF88E10FB669
:20E3A000F89480936000109260000FBE11E0A0E0B1E0ECE3F3EF01E00BBF02C007900D9239
:20E3C000AE30B107D9F712E0AEE0B1E001C01D92AB33B107E1F70E94C5F20C949CF90C94BA
:20E3E00080F1559A569A08955D9A08955D9808955E9A08955E9808955E9B0C94F8F10C94C0
:20E40000FAF15D9B0C94F4F10C94F6F1249A259A279A2E9A089580E53197319731970000AD
:20E420008A95D1F7089502D02C9801C02C9A8FEF98E087FD2D9A87FF2D98880F1E99839549
:20E440002F9A2F989A95A9F70895FB018BBF83E080935700E8958091570080FDFCCF81E11E
:20E4600080935700E89508950F921F928BBFFB01DA0190E80D901D9081E080935700E8959B
:20E4800032969A95B9F7FB0185E080935700E8958091570080FDFCCF81E180935700E89594
:20E4A0001F900F900895A2E0B0E0E9E5F2EF0C9468F9EE24FF2487016E010894C11CD11C1D
:20E4C0008BE391E06FEF70E040E051E00E9495F98BE391E060E071E0A6010E94E0F3ABE314
:20E4E000B1E0A80197014BBFF90197918C91981751F42F5F3F4F4F4F5F4F119682E0AB33BE
:20E50000B80789F70AC0C801B7010E9425F2C801B7014BE351E00E9434F280E091E0A0E0BF
:20E52000B0E0E80EF91E0A1F1B1F90E0E91690EEF90691E0090790E0190709F0C1CF22969D
:20E54000E8E00C9484F981E191E00E94D2F68823D9F42CE088E190E00FB6F894A89580939B
:20E5600060000FBE2093600080E091E00E94C6F4882351F488E10FB6F8948093600010926F
:20E5800060000FBE0E9453F20895EF92FF920F931F93CF93DF9300E010E0F801C591D4910C
:20E5A00088ECE82EF12C0E94A3F28CB58F7B8CBD219A2998289857985F9825982D98269887
:20E5C0002E9827982F9824982C988FEFCF3FD80711F0F801099580E197E2F7013197F1F7EA
:20E5E000019709F3FACFA0E0B0E0E9EFF2EF0C9468F96C01C0910E01D0910F01FC01118226
:20E6000010822481358146815781213031054105510509F45CC08E819F81A885B985281759
:20E6200039074A075B0708F052C0211531054105510539F48881833021F42E853F8548898F
:20E640005989F6012087318742875387211531054105510581F18EEFE82E8FEFF82E8FEFB0
:20E66000082F8FEF182FE20EF31E041F151F8E819F81A885B9850297A109B109E816F906B2
:20E680000A071B0728F020E030E040E050E017C02A8130E040E050E0C801B7010E941DF9B4
:20E6A0009B01AC018A899B89AC89BD89280F391F4A1F5B1F04C02E853F8548895989F60108
:20E6C000248735874687578720E030E002C021E030E0C901CDB7DEB7E8E00C9484F9A4E0F9
:20E6E000B0E0E5E7F3EF0C946CF98B019C01E0910E01F0910F01623071058105910508F47D
:20E7000055C086819781A085B185081719072A073B0708F04BC08081823021F0833009F045
:20E7200045C01EC07727632F522F412F82859385A485B585480F591F6A1F7B1F9801307028
:20E74000220F331FCE01019602E010E00E942AF8892B61F589819A819C0140E050E02AC034
:20E76000B901A80127E076956795579547952A95D1F782859385A485B585480F591F6A1FFF
:20E780007B1F98012F773070220F331F220F331FCE01019604E010E00E942AF8892B31F423
:20E7A00029813A814B815C815F7004C021E030E040E050E0B901CA012496E4E00C9488F933
:20E7C000A0E0B0E0E6EEF3EF0C9460F93C016B014A01C0910E01D0910F01FA011182108295
:20E7E000209719F425E030E0CBC0898180FD03C024E030E0C5C02A8D3B8D4C8D5D8D8E8979
:20E800009F89A88DB98D281B390B4A0B5B0BCB01A0E0B0E0281739074A075B0708F469019F
:20E820005301412C72E0572EA5C02E893F89488D598DDA01C9019170A070B0700097A1058E
:20E84000B10509F05EC0DA01C90169E0B695A795979587956A95D1F7FA80FA94F822D1F480
:20E86000211531054105510529F46E8D7F8D88A199A106C06AA17BA18CA19DA10E946FF3AD
:20E88000623071058105910508F456C06AA37BA38CA39DA300910E0110910F012AA13BA1B0
:20E8A0004CA15DA12250304040405040F80186819781A085B1850297A109B109281739078C
:20E8C0004A075B07C8F5628170E080E090E00E941DF99B01AC01F80182899389A489B58939
:20E8E000280F391F4A1F5B1F211531054105510519F12F0D311D411D511D2EA33FA348A79C
:20E9000059A72E893F893170C201821B930B76018C159D0508F47C016114710419F480E04F
:20E9200090E001C0C5014EA15FA168A579A587010E942AF8892B21F0198221E030E020C029
:20E94000C701A0E0B0E02E893F89488D598D280F391F4A1F5B1F2E8B3F8B488F598FAE0C37
:20E96000BF1CCE18DF08F401808191818E0D9F1D91838083C114D10409F057CF20E030E0A0
:20E98000C901CDB7DEB7E0E10C947CF9AEE3B0E0ECECF4EF0C945EF94C0160900E0170909F
:20E9A0000F016114710419F425E030E0A0C1D30111961C92CE010196988B8F8703C00894B3
:20E9C000811C911CF40180818032C9F38F3219F40894811C911C198A1A8A1B8A1C8AD4016E
:20E9E0008C91803250F4CE010D960E94F3F29C011D8E009709F439C17AC190E2492E8DE1A3
:20EA0000282E312C2C0E3D1EFE01B896FEAFEDAFAF85B889FD01CD010B9601C04192E817A3
:20EA2000F907E1F728E0552490E002C02BE098E0F401E50DF11D80815394813288F08F32FF
:20EA400079F08E3211F0921728F0283049F48E3269F306C0FD01E90FF11D80839F5FE8CF98
:20EA60001B961C921B97813218F4F1E01B96FC93CE010D960E94F3F29C01009709F037C197
:20EA8000498D5A8D6B8D7C8D2D853E852F70307015E0220F331F1A95E1F7C10100E210E071
:20EAA0000E942AF8892B09F02DC18D8D882309F41CC148A543FD11C02F853889F101D90119
:20EAC0008DAD9EADE817F90709F416C190818C91981719F431961196F3CF00910E01109183
:20EAE0000F01AD84BE840894A11CB11CA114B10409F4FBC0298D3A8D4B8D5C8D21153105A1
:20EB00004105510509F4F1C0C5018F709070892B09F080C02F5F3F4F4F4F5F4F298F3A8F10
:20EB20004B8F5C8F4D895E896F89788D411551056105710551F4D80114968D919C9115970F
:20EB4000A816B90608F0D1C065C0F801828190E001979501B4E036952795BA95E1F7822309
:20EB60009323892B09F056C0CB01BA010E946FF39B01AC01623071058105910508F4C2C0A6
:20EB8000F80186819781A085B185281739074A075B0708F0AAC02D8B3E8B4F8B588FC090DC
:20EBA0000E01D0900F01AEEFEA2EAFEFFA2EAFEF0A2FAFEF1A2FE20EF31E041F151FF6014E
:20EBC00086819781A085B1850297A109B109E816F9060A071B0728F020E030E040E050E016
:20EBE00015C0D60112962C9130E040E050E0C801B7010E941DF99B01AC01F6018289938904
:20EC0000A489B589280F391F4A1F5B1F298F3A8F4B8F5C8FBE86AD8633CF44FF66C0E0917E
:20EC20000E01F0910F018081833029F020E030E040E050E00AC0D10154968D919C9155974A
:20EC4000A0E0B0E0AC0133272227850C911CF101828D938DA0E0B0E0282B392B4A2B5B2B33
:20EC6000298B3A8B4B8B5C8BD3CE8D8D8823E9F188A584FD3AC0E0910E01F0910F01808164
:20EC8000833029F020E030E040E050E007C089A99AA9A0E0B0E0AC0133272227FE017D969A
:20ECA000828D938DA0E0B0E0282B392B4A2B5B2BD3015E962D933D934D935C939197848D03
:20ECC000958DA68DB78DF301828F938FA48FB58FD30156961D921D921D921C92599781E031
:20ECE00011968C9320E030E002C023E030E0C901EE96E2E10C947AF9F9018385882309F49B
:20ED00008CCFB3CF21E030E0F2CFA0E0B0E0EBE8F6EF0C9466F9B82EA92E6A017B012EEFBC
:20ED200031E002E010E00E942AF8892B11F023E033C0CB2DDA2D8881998185559A4A11F0A0
:20ED400022E02AC08B2D9A2DB701A60126E330E002E010E00E942AF8892B39F48881998136
:20ED60008654914411F420E017C08B2D9A2DB701A60122E530E002E010E00E942AF8892BC9
:20ED800011F021E009C020E0888199818654914409F421E081E02827822FCDB7DEB7EAE094
:20EDA0000C9482F9A4E2B0E0E8EDF6EF0C9461F95C0110920F0110920E010E9476F880FF1F
:20EDC00003C022E030E0F9C04E010894811C911CC40140E050E060E070E00E9485F6582E28
:20EDE00021E0821721F0CC24DD2476011CC0C40140E050E060E070E02EEB31E000E110E084
:20EE00000E942AF8892B09F0D3C08D81882309F4D2C0C984DA84EB84FC84C401B701A601E8
:20EE20000E9485F6582E63E0561609F4C1C0552009F0C1C0CE010196B701A6012DE030E031
:20EE400004E210E00E942AF8892B09F0B1C08A859B85BC0180E090E0611571058105910536
:20EE600021F4688D798D8A8D9B8D2C8130E040E050E00E941DF93B014C018A819B81A0E04E
:20EE8000B0E0C80ED91EEA1EFB1EF501C286D386E486F586898182832D813E81358324839D
:20EEA0008F8198857C0100E010E0E114F1040105110521F4EC88FD880E891F898A819B815E
:20EEC000A0E0B0E0E81AF90A0A0B1B0BE618F7080809190954E0369527955A95E1F7C90166
:20EEE000A0E0B0E0E81AF90A0A0B1B0BF501228130E040E050E0C801B7010E943CF9DA0196
:20EF0000C9010296A11DB11DF50186839783A087B187265F3F40404050402F5F3F4E4040DC
:20EF2000504010F442E0542E875F9F4FA040B04018F033E0532E02C05520E9F1F501508280
:20EF4000F3E05F1631F488A199A1AAA1BBA1F50109C0F50182859385A485B585860D971DBC
:20EF6000A81DB91D86879787A08BB18BF5018481958124E0969587952A95E1F7A0E0B0E061
:20EF80002285338544855585820F931FA41FB51F860D971DA81DB91D828B938BA48BB58B19
:20EFA0001182B0920F01A0920E0120E030E005C021E030E002C026E030E0C901A496EFE09A
:20EFC0000C947DF9DF92EF92FF920F931F93D82E7A018B0187FF0BC087E740E050E060E0E8
:20EFE00070E00E94E2F7823078F58FE7D8220E9413F28D2D0E9418F2812F9927AA27BB2787
:20F000000E9418F2C801AA27BB270E9418F2BB27A12F902F8F2D0E9418F28E2D0E9418F2DC
:20F0200080E4D81611F485E906C088E4D81611F487E801C081E00E9418F21AE00E9417F204
:20F0400087FF02C01150D1F71F910F91FF90EF90DF900895A0E0B0E0E0E3F8EF0C9468F91A
:20F060006C0179018091100183FD07C039E0440F551F661F771F3A95D1F781E50E94E2F7CD
:20F08000882351F5C0E4DCE90E9417F28F3F19F42197D1F721C08E3FF9F4E114F10429F072
:20F0A000E7010E9417F22197E1F7E8010E9417F2F60181936F012197C9F7CC27DD27CE19C8
:20F0C000DF09CE5FDD4FC01BD10B0E9417F22197E1F7C0E0D0E002C0C1E0D0E00E9416F2F0
:20F0E000CE01CDB7DEB7E8E00C9484F9A4E0B0E0ECE7F8EF0C9468F90E9406F214E60E943E
:20F100000BF21150E1F71AE00E9416F21150E1F780E440E050E060E070E00E94E2F781306C
:20F1200009F069C088E44AEA51E060E070E00E94E2F78130E1F56E010894C11CD11C7601FE
:20F140008E010B5F1F4F0E9417F2F70181937F01E017F107C1F78B81813009F04CC08C819B
:20F160008A3A09F048C000E117E206C00E940BF20150104009F43FC089EE40E050E060E0E7
:20F1800070E40E94E2F7882389F742C00E9417F2F60181936F01EE15FF05C1F7898186FD01
:20F1A00003C0E4E0FE2E28C07CE0F72E25C089EE40E050E060E070E00E94E2F7823028F0B2
:20F1C00061E4E62EFF24F39404C059EEE52E42E0F42E00E117E205C00E940BF201501040EB
:20F1E00051F08E2D40E050E060E070E00E94E2F7882391F718C0FF24F09210010E9416F24D
:20F2000080E0FF2009F481E02496E8E00C9484F98AE740E050E060E070E00E94E2F78823FB
:20F2200009F4B4CFE8CF80E540E052E060E070E00E94E2F78823F9F6DFCF629FD001739FA9
:20F24000F001829FE00DF11D649FE00DF11D929FF00D839FF00D749FF00D659FF00D992785
:20F26000729FB00DE11DF91F639FB00DE11DF91FBD01CF0111240895A1E21A2EAA1BBB1B0F
:20F28000FD010DC0AA1FBB1FEE1FFF1FA217B307E407F50720F0A21BB30BE40BF50B661F7C
:20F2A000771F881F991F1A9469F760957095809590959B01AC01BD01CF0108952F923F9211
:20F2C0004F925F926F927F928F929F92AF92BF92CF92DF92EF92FF920F931F93CF93DF935A
:20F2E000CDB7DEB7CA1BDB0B0FB6F894DEBF0FBECDBF09942A88398848885F846E847D842D
:20F300008C849B84AA84B984C884DF80EE80FD800C811B81AA81B981CE0FD11D0FB6F89413
:20F32000DEBF0FBECDBFED010895DC0101C06D9341505040E0F70895F894FFCF4649524D91
:0AF34000574152452E42494E00008D
:02FFFE000404F9
:040000050001E00016
:00000001FF
